:020000040800F2
:10000000900B00208102000889340008B3300008FA
:100010006134000899070008F1470008000000005B
:100020000000000000000000000000008F38000801
:1000300025080008000000001D380008913800085D
:100040009B0200089B0200089B0200089B0200081C
:100050009B0200089B0200089B0200089B0200080C
:100060009B0200089B0200089B0200089B020008FC
:100070009B0200089B0200089B0200089B020008EC
:100080009B020008000000009B0200089B02000881
:10009000814700089B0200089B0200089B020008A1
:1000A0009B020008153900089B0200089B0200080B
:1000B0009B0200089B0200089B0200089B020008AC
:1000C0009B0200089B0200089B0200087138000890
:1000D0009B0200089B0200089B0200089B0200088C
:1000E0009B0200089B0200089B0200089B0200087C
:1000F0009B0200089B0200089B0200080000000011
:10010000000000009B020008000000009B020008A5
:100110009B020008000000009B0200089B020008F0
:100120009B0200089B0200089B0200089B0200083B
:100130009B02000800000000000000009B02000875
:100140009B0200089B020008000000000000000065
:10015000000000000000000000000000000000009F
:100160000000000000000000000000009B020008EA
:100170009B020008000000000000000000000000DA
:10018000000000009B0200080000000000000000CA
:10019000000000000000000000000000000000005F
:1001A00000000000000000009B0200089B02000805
:1001B0009B0200089B0200089B0200080000000050
:1001C000000000009B02000800000000000000008A
:1001D0009B0200089B02000800F002F800F041F8C2
:1001E0000AA090E8000C82448344AAF10107DA4592
:1001F00001D100F036F8AFF2090EBAE80F0013F0A3
:10020000010F18BFFB1A43F001031847D84E000036
:10021000F84E0000103A24BF78C878C1FAD85207C7
:1002200024BF30C830C144BF04680C607047000070
:100230000023002400250026103A28BF78C1FBD8EF
:10024000520728BF30C148BF0B607047642900F0D7
:10025000EF80002070471FB504F018FB1FBD10B5DC
:1002600010BD00F0D7F91146FFF7F5FF04F0F6FADC
:1002700000F0F5F903B4FFF7F2FF03BC04F0E0FA75
:100280000948804709480047FEE7FEE7FEE7FEE72A
:10029000FEE7FEE7FEE7FEE7FEE7FEE70448054966
:1002A000054A064B7047000005390008D9010008CF
:1002B00090050020900B0020900700209007002060
:1002C000704753EA020C00F069802DE9F04B4FF0C3
:1002D0000006002B1FBFB3FA83F503FA05F424FAD6
:1002E00005F65E4012BF1643B2FA82F502FA05F433
:1002F000C5F120051EBF22FA05FC44EA0C04203596
:1003000056EA044C4FEA144418BF641C4FF000082E
:100310004FF00009904271EB030C39D3002919BF4B
:10032000B1FA81F701FA07F6B0FA80F700FA07F69A
:10033000C7F120071EBF20FA07FC46EA0C0620374B
:10034000B6FBF4FCA7EB0507103F07F01F0BCBF142
:1003500020060CFA0BFB2CFA06F644BFB346002627
:10036000202FA4BF5E464FF0000B5BEA060C08BFCF
:100370004FF0010B19EB0B09ABFB027C48EB0608B5
:10038000C01B06FB02CC0BFB03CC71EB0C01C1E7DD
:100390000B46024641464846BDE8F08B13B54FF088
:1003A00000004FF00001AFF30080BDE81C40704733
:1003B0000FB4044910B503AA029800F0F9F810BC74
:1003C0005DF814FBAC0000202DE9F0410E46044618
:1003D000002020622046E168884730B3252805D0F8
:1003E000D4E901219047206A401CF2E7E1682046E9
:1003F00000278847050018D0A5F14100192802D828
:1004000020354FF400673246294620462760FFF723
:100410001DFF40B1012804D0F61D26F0070608365E
:10042000D8E7361DD6E72846DAE7206ABDE8F0812E
:100430002DE9F0410646002410687529314616A5BD
:1004400010D0AFF30080002802DA404213A507E085
:1004500031688A0701D512A502E0490704D511A524
:10046000012401E0AFF3008000210A2206F12407F5
:1004700009E0B0FBF2FCB0FBF2F302FB1C003030F1
:1004800078541846491C0028F3D123462A463046A2
:10049000BDE8F04100F033B8000000002D0000007E
:1004A0002B000000200000004FF0000200B51346B2
:1004B00094469646203922BFA0E80C50A0E80C5084
:1004C000B1F12001BFF4F7AF090728BFA0E80C5035
:1004D00048BF0CC05DF804EB890028BF40F8042B2E
:1004E00008BF704748BF20F8022B11F0804F18BF9B
:1004F00000F8012B704770477047704770472DE92F
:10050000F0470D4699469246044600F124080168DA
:10051000880604D5E06921F01001216000E0012087
:10052000A84201DD471B00E00027A1697A1902EB10
:100530000900081AA0612078C00602D42046AFF353
:100540000080002608E0D4E901211AF8060090474F
:10055000206A401C761C20624E45F4DB2078C006E1
:100560000AD52046AFF3008006E0D4E9012130200F
:100570009047206A401C2062381EA7F10107F4DC76
:1005800007E0D4E9012118F805009047206A401CD3
:100590002062281EA5F10105F3DC2046AFF30080A0
:1005A0002078000602D50220BDE8F0870120FBE795
:1005B000074B70B50D467B4400F011F80446284601
:1005C00000F020F810B14FF0FF3070BD204670BD34
:1005D0008B42000001694A1C02610878704700B52F
:1005E0008FB0CDE901310021059105497944CDE96C
:1005F000031011466846FFF7E7FE0FB000BD00008C
:10060000E5FFFFFF007B00F0800070470048704767
:10061000300500207546FFF7F9FFAE460500694634
:10062000534620F00700854618B020B5FFF736FE88
:10063000BDE820404FF000064FF000074FF00008E3
:100640004FF0000B21F00701AC46ACE8C009ACE864
:10065000C009ACE8C009ACE8C0098D46704710B5C8
:100660000446AFF300802046BDE81040FFF702BE0D
:100670009FED221A9FED222A20EE010AB5EE001A04
:1006800030EE010ABDEEC01A11EE100AB5EE400AB6
:10069000F1EE10FAB8BF013801EE100AB8EEC11A37
:1006A00030EE410A20EE020ABDEEC01A9FED152A77
:1006B00011EE100A002130EE021AB1EB502F44F671
:1006C000E0011CBF0020B0EE410AC0F6000101EEBF
:1006D000100A01EB8001B8EE411A30EE410A91EDAB
:1006E000001A91ED012AB7EE003A33EE403A23EEBC
:1006F000011A20EE020A31EE000A704783F9223E09
:1007000000000044000000C49FED201A9FED202A45
:1007100020EE010ABDEEC01A11EE100AB5EE400A35
:10072000F1EE10FAB8BF013801EE100AB8EEC11AA6
:1007300030EE410A20EE020ABDEEC01A9FED152AE6
:1007400011EE100A002130EE021AB1EB502F44F6E0
:10075000E0011CBF0020B0EE410AC0F6000101EE2E
:10076000100A01EB8001B8EE411A30EE410A91ED1A
:10077000001A91ED012AB7EE003A33EE403A23EE2B
:10078000011A20EE020A31EE000A704783F9223E78
:1007900000000044000000C4FEE700001CB502F0A9
:1007A000A9FC184981ED010A91ED000ADFED160A56
:1007B00030EE200A81ED000A91ED000A134A10EE96
:1007C000100A904203DD9FED120A81ED000A91EDBF
:1007D000000ADFED100A20EE200ADFED0F0A80EE9E
:1007E000201A81ED021A0D4805C8CDE9000291EDED
:1007F000021ADDED010A9DED000ABDE81C40084823
:1008000000F033B9A0000020CDCCCC3D0000B443B3
:1008100000000000DB0F494000003443D8480008C6
:100820002C000020704700001F49204891ED090A64
:1008300080ED000A91ED0A0A80ED010A91ED0B0AA4
:1008400080ED020AD1ED0F0AB2EE040A70EE800AC2
:10085000C0ED030AD1ED100A30EE800A80ED040AE3
:1008600091ED070A80ED050A91ED080A80ED060A70
:1008700091ED110A80ED070A0D49097800EE101A72
:10088000B8EE400A80ED080A0A4991ED000A80EDB1
:10089000090A094991ED000A80ED0A0A322301464E
:1008A0005422064802F0A0BB10000020B000002037
:1008B0009C000020A4000020A0000020C001002017
:1008C00072B6FEE7014800F05BB80000100000209F
:1008D00070B51848C468641C40681749401CB1FBD7
:1008E000F0F0B0FBF4F52A46214614A0FFF760FDB6
:1008F0001B4800F037F81A4E214606F11C0096ED11
:10090000020A00F0ADF800EE105AB7EE001A06F138
:100910005000B8EE400AC1EE000A96ED010AB8EEAA
:10092000400A00F07FF9BDE870404FF47A7000F0A3
:10093000BBB900007401002080FE210A6874696D53
:10094000315F706572696F643A2025642020687495
:10095000696D315F667265713A2025640D0A000089
:100960001000002001210170B6EE000A80ED030A9C
:100970009FED020A80ED060A704700000AD7233C6B
:100980000178002907D0012903D0022903D102F000
:1009900068BDFFF703BF70471CB50A4801F0AAFE07
:1009A000084900200A68D0630A68906309684863B0
:1009B00001200090034602460146019000F004F831
:1009C0001CBD0000740100202DE9F0410C46DDE95A
:1009D000066715469846002804D008211F4802F0F3
:1009E00035F903E008211D4802F0B8F924B10821C7
:1009F0001A4801F09FFD03E00821184801F0FEFDB0
:100A000025B10421154802F021F903E0042113481F
:100A100002F0A4F9B8F1000F04D004210F4801F04E
:100A200089FD03E004210D4801F0E8FD26B1002115
:100A30000A4802F00BF903E00021084802F08EF9A1
:100A40002FB1BDE8F0410021044801F073BDBDE8BD
:100A5000F0410021014801F0D1BD000074010020E7
:100A6000016380ED0B0AFFF797BF11B42DED040B66
:100A7000DDE90012C0E9001280ED0A1ADDED010A7D
:100A80009DED000A05B010BCAFF3008031B50446FF
:100A90002DED040B2DED028B86B000200390049009
:100AA000059001900290D4ED0B0AB6EE000A20EEFC
:100AB000808A206B4508DDED090A9DED080A00F0EB
:100AC00073F88DED010ACDED020ADDE90101C4E9FB
:100AD000080100F049F830EE080A8DED030A70EEC7
:100AE000880ACDED040A31EE081A8DED051A03A827
:100AF00007C8C4E90312A06094ED0B2A1948C0EEA0
:100B0000021A00EE105A0268B8EE400A21EE800A7E
:100B1000BCEEC00A10EE101AD16394ED0B0A026805
:100B2000C0EE801A00EE105AB8EE400A21EE800A9C
:100B3000BCEEC00A10EE101A916394ED0B0A006827
:100B4000C1EE000A00EE105AB8EE400A20EE800A0C
:100B5000BCEEC00A10EE101A416306B0BDEC028B69
:100B600005B030BD740100202DED020B83B00020D4
:100B70000090019002909DED030A9DED041ADFEDB7
:100B8000091AF0EE400AF6EE002A51EE210A60EE54
:100B9000A20AB1EE402A01EE612A22EE221A05B025
:100BA00070470000D7B3DD3F00B52DED040B2DEDF0
:100BB000028B83B0F0EE418A002001900290B0EEEB
:100BC000680AFFF755FDB0EE408AB0EE680AFFF7FD
:100BD0009BFD9DED061ADDED050A61EE081A40EE5B
:100BE000601A60EE880A40EE010A03B0B0EE610AB6
:100BF000BDEC028B0FBD10B5044694ED070AD4ED91
:100C0000090A94ED081A20EE200A01EE200A84ED6C
:100C10000A0AD4ED000A30EE800A02F04BFA84EDA5
:100C2000000A10BDC0ED0B0ABCEEC00A80ED050A3B
:100C3000704770B5002490F8251000230122022986
:100C400006D004212430816142700370012429E020
:100C500001680D6825F001050D6001680D6825F03B
:100C60000E050D60816C0D6825F480750D6090F89F
:100C70004410154601F01F018A40016C4A60D0E91A
:100C800013215160416D31B10A6822F480720A600B
:100C9000D0E91621516080F8255080F82430816B0E
:100CA00001B18847204670BD70B5044600F0F0F8E9
:100CB0000546601C02D004484068044400F0E8F88F
:100CC000401BA042FAD370BD000000202DE9F84F70
:100CD0000022DFF890914FF0010803274FF00F0C2E
:100CE00009F1040AA9F1040BB4E008FA02F52B405B
:100CF000002B6ED00C7904F00304012C01D0022CDF
:100D000015D18668540007FA04FE26EA0E06D1F8CB
:100D10000CE00EFA04FE4EEA060EC0F808E0446845
:100D2000AC430D79C5F300159540254345600C791A
:100D3000E443A40702D18C68012C08D0C568540094
:100D400007FA04F6B5438E68A6402E43C6600C79B8
:100D500004F00304022C11D1D40800EB8406356A98
:100D60005407E40E0CFA04FE25EA0E05D1F810E053
:100D70000EFA04FE4EEA050EC6F820E0056854009F
:100D800007FA04F6B5430E7906F00306A6402E4393
:100D900006604C6814F4403F5BD0334C256E45F040
:100DA00001052566246E04F0010400942F4C22F006
:100DB00003052E19B56894074FEA147E0CFA0EF459
:100DC000A543B0F1904F05D0294CA04204D1012495
:100DD00017E03EE0002414E0264CA04201D102249A
:100DE0000FE0254CA04201D103240AE0234CA0428D
:100DF00001D1042405E0224CA04201D1052400E0E9
:100E0000062404FA0EF42C43B460D9F800409C4345
:100E10004D68ED0200D51C43C9F80040DAF80040E7
:100E20009C434D68AD0200D51C43CAF80040DBF876
:100E300000409C434D68AD0300D51C43CBF80040F7
:100E4000084D083D2C689C434E68F60300D51C43B2
:100E50002C60521C0B6833FA02F47FF446AFBDE8F5
:100E6000F88F00000804014000100240000001401B
:100E70000004004800080048000C0048001000482A
:100E800000140048002A01D08161704781627047D8
:100E90000148806870470000000000200248816817
:100EA00042681144816070470000002010B50024A2
:100EB000032000F077F80F2000F008F808B10124B3
:100EC00001E000F029F8204610BD000070B505468D
:100ED00000240F4E7068002817D04FF47A71B1FBD0
:100EE000F0F00C490968B1FBF0F001F071FA08B1BB
:100EF00001240BE0102D06D200222946501E00F0DE
:100F000031F8356002E0012400E00124204670BD84
:100F1000000000200C00002082B00A48016E41F061
:100F200001010166016E01F001010191816D41F045
:100F300080518165806D00F08050019002B000F01A
:100F40004FBC000000100240002809DB00F01F0227
:100F5000012191404009800000F1E020C0F800111B
:100F600070470000F0B40D460D4B1B68C3F302231D
:100F7000C3F10704042C00D90424191D072901D248
:100F8000002300E0DB1E012606FA04F1491E294079
:100F900099409E40761E16403143F0BC03F040BCA1
:100FA0000CED00E000F00701054A10684FF6FF0362
:100FB000184040EA012003490843106070470000D0
:100FC0000CED00E00000FA0501680122C0F8D02213
:100FD000002280F8C82231F8540F40F00100088048
:100FE000088840F002000880002070477047704772
:100FF00070472DE9F0470B788D6904685FEA424A33
:101000004FF0000C4BF68F7948F2800848F68F7647
:1010100048F2C00730D5B4F850A0544440F2024A18
:101020000AEBC30A34F80A40C4F30904A54202D308
:101030002D1B8D6101E0C1F818C08D6955B9056897
:1010400035F823C00CEA090C8CF4005C4CEA080C5F
:1010500025F823C0520607D50B78026832F82350D2
:1010600035403D4322F82350B4B30A8949690068EA
:10107000234603F08EFB2FE0B4F850A0544440F216
:10108000064A0AEBC30A34F80A40C4F30904A5422D
:1010900002D32D1B8D6101E0C1F818C08D6955B9CF
:1010A000056835F823C00CEA090C8CF4005C4CEAA6
:1010B000080C25F823C0520607D40B78026832F8D2
:1010C000235035403D4322F823502CB14A894969C9
:1010D0000068234603F05DFB2046BDE8F0872DE95C
:1010E000F05F05460C4616462178D4F818B02868FB
:1010F0005FEA466E48F6BF7948F2800A48F68F7775
:101100004CF280084FF6FF724FF400434FF0000C92
:101110007DD5B0F850E0704440F2024E0EEBC10EA7
:1011200030F80E00C0F30900834504D9ABEB000B87
:10113000C4F818B001E0C4F818C0D4F818B0BBF176
:10114000000F0FD0760408D52E6836F821B00BEAD0
:10115000070B4BEA080B26F821B094F8241001295C
:1011600060D08DE1607810B1012811D018E02868B6
:10117000B0F85020104400EBC10000F2024001889A
:10118000C1F309010180018841F40041018007E0B9
:101190002868B0F85020104400EBC100A0F802C449
:1011A0002868617811B1012911D018E0B0F8501009
:1011B0000844217800EBC10000F206400188C1F329
:1011C00009010180018841F40041018007E0B0F885
:1011D00050100844217800EBC100A0F806C4E07864
:1011E00002280BD12178286830F8212002EA090270
:1011F00082F0200242EA0A0220F8212021782846C3
:10120000FFF7F5FE70040AD52178286800E05EE05B
:1012100030F821203A4042EA080220F8212000203C
:10122000BDE8F09F616901446161E1690144E161E8
:101230002669216AB14203D33046091A216205E0CA
:1012400049B184F824C00846C4F820C0617829B1A7
:1012500001292CD034E084F824C0F7E72968B1F8DC
:1012600050603144267801EBC60101F202410E883C
:10127000C6F309060E8058B13E280ED84308C607AB
:1012800000D05B1C0E8802EA832216430E8017E012
:101290000A8842F400420A8012E04209C60600D1E0
:1012A000521E0E8843EA822216430E8008E0296807
:1012B000B1F850201144227801EBC201A1F80204D8
:1012C00083B222896169286803F07FFAD8E0B0F818
:1012D00050E0704440F2064E0EEBC10E30F80E00A6
:1012E000C0F30900834504D3ABEB000BC4F818B07E
:1012F00001E0C4F818C0D4F818B0BBF1000F0FD04B
:10130000760408D42E6836F821B00BEA070B4BEAB6
:10131000080B26F821B094F8241001295DD0AFE025
:10132000607810B1012811D018E02868B0F850207A
:10133000104400EBC10000F202400188C1F3090132
:101340000180018841F40041018007E02868B0F87D
:101350005020104400EBC100A0F802C42868617856
:1013600011B1012911D018E0B0F8501008442178CB
:1013700000EBC10000F206400188C1F309010180C1
:10138000018841F40041018007E0B0F850100844A2
:10139000217800EBC100A0F806C4E07802280BD148
:1013A0002078296831F8202002EA090282F0200220
:1013B00042EA0A0221F8202021782846FFF717FE8A
:1013C000700408D42078296831F820203A4042EA95
:1013D000080221F82020002022E7616901446161B0
:1013E000E1690144E1612669216AB14203D33046D3
:1013F000091A216205E051B10846C4F820C084F8FA
:1014000024C0296866782EB1012E2BD032E084F8F2
:1014100024C0F6E7B1F850603144267801EBC601EC
:1014200001F206410E88C6F309060E8058B13E2827
:101430000ED84308C60700D05B1C0E8802EA832240
:1014400016430E8016E00A8842F400420A8011E03A
:101450004209C60600D1521E0E8843EA8222164374
:101460000E8007E0B1F850201144227801EBC20150
:10147000A1F8060483B262896169286803F0A5F9BE
:101480002178286830F8212002EA090282F010024F
:1014900082F0200242EA0A0220F821200020BFE662
:1014A00010B50446206803F071F9010404D5204604
:1014B000BDE8104001F0E9BF41050ED5206830F8C5
:1014C000441F21F480610180204600F00BF9204682
:1014D000BDE81040002100F008B9410406D520689D
:1014E00030F8441F21F48041018010BD810406D5ED
:1014F000206830F8441F21F40051018010BDC10460
:1015000020D5206830F8401F21F0040101802068B8
:1015100030F8401F21F00801018094F8C80201282A
:1015200006D1002084F8C80200212046FFF75EFDA6
:10153000204600F0D8F8206830F8441F21F480518C
:10154000018010BD010515D5206830F8401F41F01D
:1015500008010180206830F8441F21F400610180F7
:10156000206830F8401F41F004010180204600F05F
:10157000D0F810BD010629D5206830F8441F21F0AD
:101580008001018094F8C80218B1204600F0C1F82B
:1015900010BD206830F8401F41F004010180206830
:1015A00030F8401F41F008010180012084F8C80292
:1015B0002068B0F8540000F0F0008008C4F8CC02B5
:1015C0002046BDE810400121FFF710BD810509D577
:1015D000206830F8441F21F400710180204600F09B
:1015E00083F810BDC005FCD5206830F8441F21F4F5
:1015F0008071018010BD70B50446002C04D094F8B1
:101600009102002510B106E0012070BD84F89052CF
:10161000204600F03BF8032084F89102206802F095
:10162000C4FE002101260BE001EB810004EBC000A9
:1016300046740174C574056245628562491CC9B26D
:1016400020798842F0D800210DE001EB810004EB05
:10165000C00000F5A87045700170C5700561456156
:101660008561491CC9B220798842EED894E8070008
:1016700002F092FE257384F89162A07A012802D1CB
:101680002046FFF7A1FC002070BD000010B592B00D
:101690000446442101A8FEF707FF1049206888424C
:1016A0001AD14014019000200E9001A800F0A0F87B
:1016B00008B1FFF705F90A48816D41F40001816521
:1016C000806D00F400000090002202211420FFF73A
:1016D00049FC1420FFF738FC12B010BD005C00403C
:1016E0000010024070477047704710B5044694F8E8
:1016F000900201280AD0012084F89002217320680A
:1017000003F05CF8002084F8900210BD022010BDA8
:10171000704770472F49304B0A6832214A432F499E
:1017200000280AD0B0F5007F2DD0086820F4C060F2
:1017300040F480600860002070470868C0F34120D2
:10174000022805D051F8800F20F480700860F2E77D
:10175000D1F8800020F48070C1F88000086820F47F
:10176000C06040F400700860B2FBF3F0401C00E081
:10177000401E4A69520501D50028F9D14869400543
:10178000D9D5032070470868C0F34120022805D04E
:1017900051F8800F40F480700860CCE7D1F88000E9
:1017A00040F48070C1F88000086820F4C06040F404
:1017B00000700860B2FBF3F0401C00E0401E4A6974
:1017C000520501D50028F9D148694005B3D5032059
:1017D000704700000C00002040420F0000700040E5
:1017E0000248816841F48041816070470070004088
:1017F0002DE9F84F0446002600272068A04D00037D
:1018000066D54FF00008A86DC00009D4A86D40F05F
:101810008050A865A86D00F0805000904FF001083E
:10182000DFF860A2DAF8000040F48070CAF8000027
:10183000FFF72EFB814607E0FFF72AFBA0EB09002C
:10184000022801D9032603E0DAF80000C005F3D529
:1018500026B13746B8F1010F36D039E0D5F89000FF
:1018600000F4407080B1216C81420DD055F8900F8A
:1018700020F44070296841F480312960296821F4FE
:101880008031296045F89009C00711D0FFF700FBAF
:10189000814641F2883A07E0FFF7FAFAA0EB090027
:1018A000504501D9032603E0D5F890008007F3D511
:1018B0000EB13746CEE7D5F89000216C20F4407089
:1018C0000843C5F89000C5E7A86D20F08050A865D2
:1018D0002078C00707D0D5F88800616820F00300A1
:1018E0000843C5F888002078800707D5D5F8880018
:1018F000A16820F00C000843C5F888002078400754
:1019000007D5D5F88800E16820F030000843C5F815
:1019100088002078000707D5D5F88800216920F0D5
:10192000C0000843C5F888002078800607D5D5F8A0
:101930008800616920F440600843C5F88800207879
:10194000400607D5D5F88800A16920F44050084327
:10195000C5F888002078000607D5D5F88800E16929
:1019600020F440400843C5F888002088C00507D50A
:10197000D5F88800216A20F440300843C5F8880073
:101980002088800507D5D5F88800616A20F44020BA
:101990000843C5F88800208840050FD5D5F8880091
:1019A000A16A20F440100843C5F88800A06AB0F589
:1019B000801F03D1E86840F48010E86020880005AB
:1019C0000FD5D5F88800E16A20F440000843C5F837
:1019D0008800E06AB0F5800F03D1E86840F4801019
:1019E000E8602088C0040FD5D5F88800216B20F06E
:1019F00040700843C5F88800206BB0F1807F03D1A8
:101A0000E86840F48010E86020884FF000618004AE
:101A10000ED5D5F88800626B20F040601043C5F801
:101A20008800606B884203D1E86840F48010E86069
:101A3000208840040ED5D5F88800A26B20F04060C5
:101A40001043C5F88800A06B884203D1E86840F4D1
:101A50008010E860208800040FD5D5F88800E16B7D
:101A600020F040500843C5F88800E06BB0F1805F7B
:101A700003D1E86840F48030E8603846BDE8F88F6C
:101A800000100240007000402DE9F04704460D466A
:101A90000027002C17D0DFF8A091D9F8000000F043
:101AA0000F00A84211D2D9F8000020F00F002843FF
:101AB000C9F80000D9F8000000F00F00A84204D0D7
:101AC0000120BDE8F0870120FBE720785B4EC007CE
:101AD00041F2883A4ED06068DFF86481032806D06E
:101AE00002281ED03068400520D40120E9E7306884
:101AF000800101D40120E4E701F092FE404520D9A5
:101B0000B06810F0F00F04D02078800719D5A068D5
:101B1000B8B9B06820F0F00040F08000B0608027D5
:101B20000FE03068800301D40120CAE700F0BAF862
:101B3000404506D9B06820F0F00040F08000B06069
:101B40008027B068616820F003000843B060FFF7A9
:101B50009FF9804607E0FFF79BF9A0EB080050458E
:101B600001D90320ADE7B068616800F00C00B0EB6C
:101B7000810FF0D12068810715D5400703D5B068E3
:101B800040F4E060B0602078000705D5B06820F42C
:101B9000605040F4E060B060B068A16820F0F000F0
:101BA0000843B06005E0802F03D1B06820F0F0005A
:101BB000B060D9F8000000F00F00A84217D9D9F89A
:101BC000000020F00F002843C9F80000FFF760F97B
:101BD000074606E0FFF75CF9C01B504501D903201A
:101BE0006FE7D9F8000000F00F00A842F2D120788A
:101BF000400705D5B068E16820F4E0600843B060B4
:101C00002078000706D5B068216920F4605040EACA
:101C1000C100B06000F046F8B1680A4AC1F3031190
:101C2000515C01F01F01C84007490860074800687F
:101C3000BDE8F047FFF74AB900200240001002401B
:101C400000B4C404BE4800080C00002000000020BE
:101C500001480068704700000C00002000B5FFF745
:101C6000F7FF05498968054AC1F30221515C01F07B
:101C70001F01C84000BD000000100240CE4800080F
:101C800000B5FFF7E5FF05498968054AC1F3C221A0
:101C9000515C01F01F01C84000BD0000001002406F
:101CA000CE48000810B51A4A9068C0F3810119485F
:101CB00001290BD091684410C1F38101022906D09B
:101CC0009168C1F38101032903D0002010BD204693
:101CD00010BDD16801F00303D168C1F30311491CA1
:101CE000032B0DD0B0FBF1F0D168C1F306214843BE
:101CF000D168C1F34161491C4900B0FBF1F010BD4E
:101D0000B4FBF1F0D168C1F306214843F0E70000CD
:101D1000001002400024F4002DE9F8430446002C92
:101D20000CD02078FE4DC00752D0A86800F00C00FF
:101D3000E96801F003010C2803D004E00120BDE8AC
:101D4000F883032916D0082814D06068B0F5803FC6
:101D500017D0B0F5A02F19D0286820F48030286063
:101D6000286820F480202860606818B3FFF790F896
:101D700006461BE0286880032AD5606840BB012026
:101D8000DDE7286840F480302860EDE7286840F4FB
:101D900080202860286840F480302860E4E7FFF75E
:101DA00077F8801B642801D90320C8E728688003DE
:101DB000F5D50DE0FFF76CF8064606E0FFF768F88A
:101DC000801B642801D90320B9E728688003F5D473
:101DD000207880074ED5A86800F00C00E96801F073
:101DE00003010C2801D102290BD0042809D0E06896
:101DF00070B3286840F480702860FFF749F8064601
:101E00001BE02868400501D5E06868B16868217C5E
:101E100020F0FE4040EA01606860C2480068FFF7B9
:101E200055F838B301208AE7012088E7FFF730F83A
:101E3000801B022801D9032081E728684005F5D5D9
:101E40006868217C20F0FE4040EA0160686011E093
:101E5000286820F480702860FFF71AF8064606E02C
:101E6000FFF716F8801B022801D9032067E72868CE
:101E70004005F5D4207800072CD56069A8B1D5F8C5
:101E8000940040F00100C5F89400FFF701F8064601
:101E900006E0FEF7FDFF801B022801D903204EE774
:101EA000D5F894008007F4D514E0D5F8940020F01C
:101EB0000100C5F89400FEF7EBFF064606E0FEF7CA
:101EC000E7FF801B022801D9032038E7D5F89400EA
:101ED0008007F4D4207840076FD54FF00008A86D34
:101EE000C00009D4A86D40F08050A865A86D00F02E
:101EF000805000904FF001088B4E3068C00511D41F
:101F0000306840F480703060FEF7C2FF074606E09C
:101F1000FEF7BEFFC01B022801D903200FE730687F
:101F2000C005F5D5A068012813D0052818D055F8AC
:101F3000900F20F001002860286820F0040045F888
:101F40009009A06841F2883608B3FEF7A1FF074662
:101F500018E0D5F8900040F00100C5F89000F0E7D7
:101F600055F8900F40F004002860286840F0010008
:101F700045F89009E5E7FEF78BFFC01BB04201D999
:101F80000320DCE6D5F890008007F4D50EE0FEF7DC
:101F90007FFF074606E0FEF77BFFC01BB04201D97A
:101FA0000320CCE6D5F890008007F4D4B8F1010FF7
:101FB00003D1A86D20F08050A865207880062CD52C
:101FC000A069A8B1D5F8980040F00100C5F89800C4
:101FD000FEF75EFF064606E0FEF75AFF801B02286A
:101FE00001D90320ABE6D5F898008007F4D514E0BA
:101FF000D5F8980020F00100C5F89800FEF748FFDA
:10200000064606E0FEF744FF801B022801D90320A4
:1020100095E6D5F898008007F4D4E069F0B3A96894
:102020004FF0FF37C1F3810103295ED0022807D0AA
:10203000286820F080702860FEF72AFF04464CE0F4
:10204000286820F080702860FEF722FF064606E030
:10205000FEF71EFF801B022801D903206FE62868C7
:102060008001F5D454F8201F6068228A401E41EA9E
:102070000010A16807EB5202090241EA42510843ED
:10208000217D07EB510140EA4160217B40EAC160BC
:10209000E968264A11400843E86000E062E02868E9
:1020A00040F080702860E86840F08070E860FEF7DB
:1020B000EFFE044606E0FEF7EBFE001B022801D906
:1020C00003203CE628688001F5D54BE0FEF7E0FEF2
:1020D000001B022801D9032031E628688001F5D4CD
:1020E000E86813490840E8603CE0012838D0E86817
:1020F000226A00F00301914230D1616A00F0F002DF
:10210000491EB2EB011F29D1A26A00F4FE41B1EBD6
:10211000022F23D100F0784194F82C200AE000002F
:102120000010024000000020007000400C809F0161
:10213000FCFFEEFEB1EBC26F10D1228E00F4C001A5
:1021400007EB5202B1EB425F08D194F8341000F073
:10215000C06007EB5101B0EB416F03D00120EEE509
:102160000120ECE50020EAE57047000038B50446A0
:10217000206842688168C9434B060AD5CB0708D15D
:10218000D3435B0605D4E16C01B02046BDE8304086
:1021900008478B0708D4D3431B0605D4216D01B033
:1021A0002046BDE8304008478B0603D54B0601D5D5
:1021B000CB0551D4D3439B064ED44B060AD494F896
:1021C0005D30032B49D0236E43F004032366C368BC
:1021D000836800938B0609D4236E43F001032366C2
:1021E00083680093036823F040030360C80506D4A6
:1021F000206E40F008002066206880680090206E05
:10220000002829D02068416821F0E00141600120C8
:1022100084F85D00900701D4D00722D0206841687F
:1022200021F003014160114DA06D40B18563A06DA7
:10223000FEF7FFFC18B1206E40F040002066606D94
:10224000002809D08563606DFEF7F3FC002803D0F9
:10225000206E40F04000206638BDC1688068009064
:1022600038BD2046FFF780FF38BD00007D380008EC
:1022700070B50446002C09D0606A002540B1256184
:102280006561A56294F85D0040B10CE0012070BD6D
:102290006068B0F5827FF4D0E561F2E784F85C50C5
:1022A000204600F05BF8022084F85D002068016899
:1022B00021F040010160E1684FF4E062914201D9F0
:1022C000002001E04FF48050B1F5706F02D09142D0
:1022D00000D0A562A188228901F4827102F404422F
:1022E0001143227C02F002021143227D02F001021E
:1022F0001143228B02F400721143227F02F0380254
:10230000114394F8202002F080021143228D02F440
:102310000052114322681160A169042202EA1141AE
:1023200094F8242000F4805002F01002114394F835
:10233000342002F008021143A28902F470621143B2
:102340000143206841602068C16921F40061C161D6
:102350002566012084F85D00002070BD10B586B0B0
:102360000446142101A8FEF79FF816492068884208
:1023700025D11548016E41F480510166016E01F4CA
:1023800080510091C16C41F00201C164C06C00F049
:10239000020000903820019002200290002003905B
:1023A00004900520059001A90848FEF78FFC002243
:1023B00011462320FEF7D6FD2320FEF7C5FD06B00B
:1023C00010BD000000300140001002400004004831
:1023D00010B5401EB0F1807F01D3012010BD4FF039
:1023E000E02460610F21601702F01AFA0020A0615A
:1023F00007202061002010BD704770477047000023
:1024000030B590F83C20012A42D0012280F83C20CF
:10241000CA6800248B6822F440721A434B6822F485
:1024200080621A430B6822F400621A430B6922F49B
:1024300080521A434B6922F400521A430B6B22F468
:1024400080421A430B8B22F4702242EA0342CB698A
:1024500022F080521A430F4D0368AB4202D00E4D5A
:10246000AB4210D10D8D22F4700242EA05520D6A82
:1024700022F080722A434D6A22F000722A43C96A10
:1024800022F000520A435A6480F83C40002030BDDC
:10249000022030BD002C01400034014070477047DD
:1024A00070470000F0B590F83C20012A34D0012696
:1024B00080F83C60022280F83D2003685A689C68DE
:1024C000164FDFF85CC0BB4201D0634503D122F454
:1024D00070054A682A43134D2A400D6815435D6014
:1024E0000268BA420DD0B2F1804F0AD00E4B9A4228
:1024F00007D00E4B9A4204D0624502D00C4B9A4250
:1025000004D124F080038968194391603C304670FF
:10251000002101700020F0BD0220F0BD002C014020
:10252000003401408FFFFFFD000400400008004020
:102530000040014010B50446002909D004290AD002
:1025400008290BD094F8470001280AD0012010BDBB
:1025500094F84400F8E794F84500F5E794F846004D
:10256000F2E7022071B304292FD0082930D084F873
:1025700047000422206801F03CFA2068416C41F4D5
:10258000004141641749206888420ED0B0F1804F65
:102590000BD01549884208D01449884205D0144907
:1025A000884202D01349884215D18168124A1140ED
:1025B000062914D0B1F5803F11D0016841F0010126
:1025C00001600CE084F84400D3E784F84500D0E7CC
:1025D00084F84600CDE7016841F001010160002068
:1025E00010BD0000002C0140000400400008004025
:1025F00000340140004001400700010070B504466E
:102600000D4600222946206801F0F3F92068036A8C
:10261000144944F244420B4206D1036A134203D1E7
:10262000436C23F4004343642068036A0B4206D1E1
:10263000016A114203D1016821F00101016001200A
:102640003DB1042D08D0082D09D084F847000020A2
:1026500070BD84F84400FAE784F84500F7E784F891
:102660004600F4E711111100704710B50446002C24
:1026700003D094F83D0010B107E0012010BD002008
:1026800084F83C00204600F017F8022084F83D0052
:10269000211D206801F044F901203D34E072607092
:1026A000A070E07020716071A071E07120726072A2
:1026B000A0722070002010BD08B500680B49884248
:1026C00012D10B48016E41F400610166006E00F406
:1026D00000600090002211461920FEF743FCBDE87F
:1026E00008401920FEF730BC08BD0000002C014056
:1026F0000010024090F83D10012901D001207047E0
:10270000022180F83D100168CA6842F00102CA60E7
:102710000068124988420ED0B0F1804F0BD01049AA
:10272000884208D00F49884205D00F49884202D01C
:102730000E4988420CD181680D4A114006290BD000
:10274000B1F5803F08D0016841F00101016003E06C
:10275000016841F00101016000207047002C014038
:1027600000040040000800400034014000400140E7
:102770000700010070B50446002594F83C000128CC
:1027800014D0012684F83C60022084F83D002068C3
:102790008268394B1A4022F47F42826008687028B0
:1027A0002DD010DC10F00F0F03D021E04FF002000D
:1027B00070BD4FEA2012072A1AD2DFE802F05656FF
:1027C00056564C3842002D4BC21A98424DD009DC67
:1027D000B0F5805F0DD0B0F5005F1CD0B0F1101FD8
:1027E00006D142E0102A40D0202A3ED0502A3CD0C8
:1027F00001253C34667000202070284670BDCB68EF
:10280000D1E90121206801F001F92068816841F0D7
:1028100077018160EDE7CB68D1E90121206801F003
:10282000F5F82068816841F480418160E1E7CA6879
:102830004968206801F0A4FA5021206801F0F0F8FE
:10284000D7E7CA684968206801F0C8FA60212068A3
:1028500001F0E6F8CDE7CA684968206801F090FA0F
:102860004021206801F0DCF8C3E7226801461046E9
:1028700001F0D6F8BDE7000088FFCEFF2000100071
:1028800070472DE9F04104462068C66805694FF09D
:102890000007A90714D5B10712D5F91E016101205F
:1028A000207720688069800703D02046FFF7E8FF83
:1028B00005E0204600F004F9204600F0C5F927772E
:1028C000680717D5700715D521686FF004000861F7
:1028D000022020772068806910F4407F03D02046D2
:1028E000FFF7CEFF05E0204600F0EAF8204600F0B2
:1028F000ABF92777280716D5300714D521686FF074
:1029000008000861042020772068C069800703D090
:102910002046FFF7B5FF05E0204600F0D1F820463D
:1029200000F092F92777E80617D5F00615D521684B
:102930006FF010000861082020772068C06910F44B
:10294000407F03D02046FFF79BFF05E0204600F0C4
:10295000B7F8204600F078F92777E80708D0F007A5
:1029600006D021686FF001000861204600F04EFAA1
:10297000280601D4A80408D5300606D521686FF4CE
:10298000025008612046FFF738FDE80508D53006FB
:1029900006D521686FF4807008612046FFF72CFD92
:1029A000680608D5700606D521686FF040000861FA
:1029B000204600F035FAA80608D5B00606D52168ED
:1029C0006FF0200008612046FFF718FDE80208D5E7
:1029D000F00206D521686FF4801008612046FFF7E9
:1029E0005EFDA80208D5B00206D521686FF400107C
:1029F00008612046FFF752FD680208D5700206D52F
:102A000021686FF4800008612046FFF749FD280225
:102A10000AD5300208D521686FF40000086120460D
:102A2000BDE8F041FFF720BEBDE8F081F0B587B00A
:102A30000446142102A8FDF737FD1E49206888428C
:102A400036D11D48C16C41F00201C164C16C01F076
:102A500002010191C16C41F00101C164C06C00F040
:102A6000010001904FF4C04002900225039500241C
:102A70000494059406260696104F02A93846FEF7E0
:102A800025F9A90302910395049405940420069066
:102A900002A93846FEF71AF94FF4E0600290039558
:102AA00004940594069602A94FF09040FEF70EF9A3
:102AB00007B0F0BD002C01400010024000040048A7
:102AC000704770B504460D46002694F83C00012876
:102AD0000BD0012084F83C000C2A4FD007DC82B1D7
:102AE000042A22D0082A06D134E0022070BD102A20
:102AF00059D0142A6BD00126002084F83C003046BF
:102B000070BD2946206800F095FF2068816941F07A
:102B1000080181612068816921F0040181612068D8
:102B200081692A6911438161E6E72946206800F03E
:102B3000D3FF2068816941F4006181612068816967
:102B400021F480618161206881692A6941EA02215A
:102B50008161D1E72946206801F00AF82068C1693F
:102B600041F00801C1612068C16921F00401C1611F
:102B70002068C1692A691143C161BDE729462068FF
:102B800001F042F82068C16941F40061C161206828
:102B9000C16921F48061C1612068C1692A6941EA83
:102BA0000221C161A8E72946206801F079F8206870
:102BB000016D41F0080101652068016D21F00401FB
:102BC00001652068016D2A691143016594E7294672
:102BD000206801F09DF82068016D41F400610165F5
:102BE0002068016D21F4806101652068016D2A690A
:102BF00041EA022101657FE710B50446002C03D0AD
:102C000094F83D0010B107E0012010BD002084F8C9
:102C10003C00204600F017F8022084F83D00211DFA
:102C2000206800F07DFE01203D34E0726070A070ED
:102C3000E07020716071A071E07120726072A0720A
:102C40002070002010BD70477047000030B504466A
:102C500000290DD004290ED008290FD00C2910D03E
:102C6000102911D094F84300012810D0012030BD64
:102C700094F83E00F8E794F83F00F5E794F8400038
:102C8000F2E794F84100EFE794F84200ECE7022005
:102C9000F1B3042940D0082941D00C2942D0102991
:102CA00043D084F843000122206800F095FE2349B8
:102CB0002068234A234B884209D0904207D098428B
:102CC00005D0214DA84202D0204DA84203D1456C29
:102CD00045F400454564206888420CD0B0F1804F2F
:102CE00009D01B49884206D01A49884203D0904235
:102CF00001D098421CD18168174A114006291BD087
:102D0000B1F5803F18D0016841F00101016013E086
:102D1000FFE784F83E00C6E784F83F00C3E784F885
:102D20004000C0E784F84100BDE784F84200BAE7FC
:102D3000016841F001010160002030BD002C01401C
:102D4000003401400040014000440140004801407F
:102D500000040040000800400700010030B50446B0
:102D60000D4600222946206800F036FE224A2149FD
:102D70002068931188420BD02049884208D020490E
:102D8000884205D01F49884202D01F49884209D194
:102D9000016A114206D1016A194203D1416C21F442
:102DA000004141642068016A114206D1016A19425A
:102DB00003D1016821F00101016001205DB1042D02
:102DC0000CD0082D0DD00C2D0ED0102D0FD084F866
:102DD0004300002030BD84F83E00FAE784F83F004D
:102DE000F7E784F84000F4E784F84100F1E784F85D
:102DF0004200EEE7002C01401111110000340140A7
:102E0000004001400044014000480140006803497F
:102E1000884201D1FDF756BD70470000002C0140EB
:102E2000704790F88410012918D0012180F884108F
:102E30002421C0F8881001680A680B6823F0010398
:102E40000B6022F0005100224266036819602021C5
:102E5000C0F8881080F88420002070470220704756
:102E600070B5044694F8840001281DD0012084F830
:102E700084002420C4F8880020680568026822F0D5
:102E8000010202602068826822F060620A43826068
:102E9000204600F0C3FF206805602020C4F88800A9
:102EA000002084F8840070BD022070BD70B5044617
:102EB00094F8840001281DD0012084F88400242087
:102EC000C4F8880020680568026822F001020260E8
:102ED0002068826822F060420A438260204600F047
:102EE0009DFF206805602020C4F88800002084F839
:102EF000840070BD022070BD10B50446002C03D0C4
:102F0000D4F8880010B107E0012010BD002084F83B
:102F10008400204600F028F82420C4F888002068A7
:102F2000016821F001010160A06A10B1204600F0A3
:102F300099FF204601F07AF8012813D020684168F3
:102F400021F4904141602068816821F02A0181606C
:102F50002068016841F0010101602046BDE8104091
:102F600000F0E4BF012010BD10B598B00446142154
:102F700013A8FDF799FA442102A8FDF795FA17491D
:102F80002068884227D1042002900024059402A8DA
:102F9000FEF72EFC08B1FDF793FC1148816D41F45A
:102FA00080218165816D01F480210191C16C41F026
:102FB0000201C164C06C00F0020001904FF4406057
:102FC000139002201490159416940720179013A9BB
:102FD0000448FDF77BFE18B010BD0000004800401B
:102FE00000100240000400482DE9F84F04460E4648
:102FF00015461F46D4F88800202802D00220BDE8DC
:10300000F88F9EB195B10020C4F890004FF02108D0
:10301000C4F88880FDF73CFF8246A4F85450A4F819
:103020005650A068B0F5805F02D003E00120E6E7CB
:10303000206920B1354600264FF0200925E0002503
:10304000FAE75346002280212046009701F058F904
:1030500018B1C4F888900320D1E755B1216815F85C
:10306000010B8862D4F8880038EA000008D00120FB
:10307000C5E736F8020B2168C0F308008862F1E763
:10308000B4F85600401EA4F85600B4F856000028C4
:10309000D7D15346002240212046009701F030F955
:1030A00018B1C4F888900320A9E7C4F888900020DC
:1030B000A5E7FEE7DFED0D0A0D480DE010EE101A52
:1030C000814202DD30EE600A06E0B5EEC00AF1EEA4
:1030D00010FA01D230EE200A10EE101A8142EDDC17
:1030E000B5EEC00AF1EE10FAE8D37047DB0FC94025
:1030F000DB0FC94010B500F00DF805480449891DE3
:103100004088088000EE100AB8EE400A10BD0000AA
:10311000040100201CB54FF40341ADF804104FF436
:103120000443ADF806301D4C206820F004002060F8
:103130001B48C1608168C907FCD0C1688AB2ADF87C
:103140000020216841F004012160216821F0040180
:103150002160C3608168C907FCD0C06880B2ADF847
:103160000200216841F0040121600E4CD1B261F3EC
:103170001F20208001F03DFBC00702D000206071BD
:1031800001E0012060716079002805D02088810865
:103190006180C0F3400020711CBD0000140C004889
:1031A00000300140040100200448002101804180DA
:1031B0000348016841F040010160704704010020AC
:1031C00000300140F0B587B0142102A8FDF76CF97A
:1031D0002548C16C41F00401C164C16C01F00401D7
:1031E0000191C16C41F02001C164C16C01F020016A
:1031F0000191C16C41F00201C164C16C01F0020196
:103200000191C16C41F00101C164C16C01F0010187
:103210000191C16C41F00801C164C06C00F008006C
:103220000190124F4FF46044002221463846FDF7CA
:1032300029FE0F4E002204213046FDF723FE0294A2
:103240000125039500240494059402A93846FDF74E
:103250003DFD0420029003950494059402A9304694
:10326000FDF734FD07B0F0BD001002400008004833
:10327000000C004810B51248104901604FF48271EB
:103280004160002181604FF47062C26002220261DD
:1032900001224261520282611822C26101624162CE
:1032A00081620722C26201634163FEF7E1FF0028E9
:1032B00003D0BDE81040FDF703BB10BD0030014056
:1032C0001001002010B59CB00024189419941A9491
:1032D0001B941594169417941C210EA8FDF7E4F87E
:1032E000342101A8FDF7E0F8344833490160446017
:1032F000846042F23311C160046144618461FFF76C
:10330000B4F908B1FDF7DCFA4FF48050189018A911
:103310002A48FFF72FFA08B1FDF7D2FA2748FFF73E
:103320006BFC08B1FDF7CCFA202015900004169034
:10333000179415A92148FFF7B5F808B1FDF7C0FAB1
:1033400060200E900F94109411941294139414947E
:1033500000220EA91948FFF7B4FB08B1FDF7B0FA37
:1033600004220EA91548FFF7ACFB08B1FDF7A8FA37
:1033700008220EA91148FFF7A4FB08B1FDF7A0FA37
:10338000019402940394049405944FF40050069021
:1033900007940894099400030A900B940C940D94DC
:1033A00001A90648FFF72CF808B1FDF789FA034890
:1033B000FFF73CFB1CB010BD002C01407401002045
:1033C00010B51848164901604FF4E1314160002101
:1033D0008160C16001610C2242618161C161016251
:1033E00041628162FFF788FD08B1FDF769FA0021AB
:1033F0000C48FFF75BFD08B1FDF762FA00210948B0
:10340000FFF72EFD08B1FDF75BFA0648FFF709FD4F
:10341000002803D0BDE81040FDF752BA10BD0000EF
:1034200000480040C001002010B50C480A49016066
:103430000821017102214171C171002101724172A3
:103440008172C172FEF7D7F8002803D0BDE81040A2
:10345000FDF736BA10BD0000005C004054020020A9
:10346000FEE770B5054605F150042046FDF7C3FBA5
:1034700094ED001AD4ED080A94ED070A05F11C003A
:10348000BDE87040FDF7F1BAFEE72DE9F05F0446B4
:1034900040F68F7940F206484FF0000AB6E1B0F8E6
:1034A000441001F00F06082E02D30120BDE8F09F62
:1034B000E6B330F8267039047DD530F8261001EADD
:1034C000090141F0800120F8261006EB860004EB8C
:1034D000C00505F5A875287B00286DD0E87802287E
:1034E0006BD02978206830F8212048F68F731A4075
:1034F00048F2C0031A4320F821202978206830F8C8
:103500002120520473D5B0F85020131840F2024223
:1035100002EBC101595AC1F3090BBBF1000F04D0F2
:103520002A895B46696901F034F9D0E0FFE7C906F2
:103530002BD4018848F60F72114041F400410180FC
:1035400004F110052068B0F850102A78014440F2C8
:10355000024000EBC200085AC0F30900E861696943
:103560000844686100212046FDF741FD207B0028CA
:1035700094D0A869002891D1207B216840F0800078
:10358000A1F84C0084F80CA040E104F5A87501886E
:103590000A053FD5B0F850100844297808EBC1015E
:1035A000405AC0F30900E861082821D0206801884A
:1035B0004BF68F7202E09EE05FE071E0114081F413
:1035C000805148F28002114301802068018848F64A
:1035D000BF73194081F010011143018020680188F8
:1035E00001EA090141F08001018000205EE75EE010
:1035F0000823EA8804F52671206801F0CAF82068DB
:10360000018801EA090141F0800101802046FEF7AE
:103610007FF8FBE00904B7D5018801EA090141F010
:10362000800101802068B0F850100844297808EB28
:10363000C101405AC0F30900E86180B169690029FD
:10364000A2D083B2EA88206801F0A3F8E96968692A
:103650000844686100212046FDF7CAFCD6E02068D6
:1036600001884BF68F72114081F4805181F4005132
:1036700048F2800211430180C8E02068B0F8501081
:103680002A78014408EBC202895AC1F3090BBBF145
:10369000000F1CD0EA885B46696901F07AF816E0F1
:1036A0003A4629462046FDF7A4FC83460FE0B0F8D1
:1036B000502008EBC1010244515AC1F3090BBBF180
:1036C000000F04D06A895B46696901F062F8E86915
:1036D0005844E861A86910B12869584504D9297887
:1036E0002046FDF785FC06E0686958446861294674
:1036F000206800F062FE38066FD506EB860004EB0A
:10370000C0011031206830F8262048F60F731A40A7
:1037100042F4004220F82620C878012813D0F8058A
:1037200070D42068B0F850200B78024440F2024078
:1037300000EBC300105AC0F309008A6982424DD9D8
:10374000121A8A614CE0C1F818A0087B08B3780609
:1037500020D5487810B1012812D03AE02068B0F89E
:10376000502010440A7800EBC20000F202400288A8
:10377000C2F309020280028842F40042028028E07B
:103780002068B0F8502010440A7800EBC200A0F87E
:1037900002A41EE020684A7812B1012A11D018E074
:1037A000B0F8502010440A7800EBC20000F2064046
:1037B0000288C2F309020280028842F400420280B9
:1037C00007E0B0F8502010440A7800EBC200A0F8DF
:1037D00006A409782046FDF70AFC17E0C1F818A0F6
:1037E0008A694AB14A6902444A61CA691044C86197
:1037F000206800F0E2FD09E009782046FDF7F7FBBC
:1038000004E0FFE73A462046FDF769FC2068B0F87F
:10381000441009043FF543AE002047E6704700001E
:103820001049C86800F00302C868C0F30310401CC8
:10383000032A0ED00C4AB2FBF0F0CA68C2F306228B
:103840005043C968C1F34161491C4900B0FBF1F024
:103850007047064AB2FBF0F0CA68C2F30622504332
:10386000EFE70000001002400024F40000127A008C
:103870000148FEF77BBC00001001002010B5806AF3
:103880000021A0F84610C187FEF76EFC10BD7047FE
:10389000FDF704BB00B593B0382105A8FCF704FE82
:1038A00014216846FCF700FE0020FDF733FF2220BC
:1038B00005904FF4807008904020099001200B90F3
:1038C00002200C900D9004210E9155210F91109023
:1038D0001190129005A8FEF71FFA08B1FCF7F0FF4F
:1038E0000F2000900320019000200290039004908C
:1038F00004216846FEF7C8F8002801D0FCF7E0FF75
:1039000013B000BD0248016841F4700101607047C6
:1039100088ED00E00148FEF7B4BF0000740100200C
:103920002DE9F0470268254DDFF89480DFF8949088
:10393000254B4FF0804AA84207D0504505D040455E
:1039400003D0484501D0984203D122F070044A6860
:1039500022431E4E1E4FDFF87CC0A8420DD05045BA
:103960000BD0404509D0484507D0984205D0B04219
:1039700003D0B84201D0604503D122F44074CA6834
:1039800022434C6922F0800222438C68C4620C6896
:103990008462A84207D0984205D0B04203D0B84212
:1039A00001D0604501D109690163016841F004015A
:1039B0000160012141610260BDE8F087002C0140F7
:1039C0000004004000080040003401400040014075
:1039D000004401400048014010B501F01F010123DF
:1039E0008B40046A9C430462036A8A401343036267
:1039F00010BD10B501F00F0104238B40046A9C43F5
:103A00000462036A8A401343036210BD10B58468E0
:103A100024F47F4442EA03220A432243826010BD19
:103A20008268034B1A400A4342F0070181607047E5
:103A30008FFFCFFF2DE9F043056A026A22F00102F1
:103A40000262436882691E4C224022F003020C6825
:103A5000144325F002058A682A431A4E1A4FDFF8EC
:103A60006CC0DFF86C80DFF86C90B04207D0B842D1
:103A700005D0604503D0404501D0484507D1056ACF
:103A800025F00405056222F00805CA682A43B04201
:103A900007D0B84205D0604503D0404501D0484525
:103AA00007D123F4807323F400734D691D438B69A0
:103AB0002B4343608461496841630262BDE8F0833F
:103AC0008FFFFEFF002C0140003401400040014008
:103AD0000044014000480140F0B5046A026A22F047
:103AE00010020262426883691B4D2B4023F440732D
:103AF0000D6843EA052524F020038C6843EA04138B
:103B0000164C174EA04201D0B04208D1076A27F0E8
:103B10004007076223F08003CF6843EA0713A042FF
:103B20000AD0B04208D00F4CA04205D00E4CA042A3
:103B300002D00E4CA04209D122F4806222F400622D
:103B40004C6942EA84028C6942EA840242608561DF
:103B5000496881630362F0BDFF8FFFFE002C0140C6
:103B60000034014000400140004401400048014051
:103B7000F0B5056A026A22F4807202624268C36983
:103B80001B4C234023F003030C681C4325F40073F3
:103B90008D6843EA0523174D174EA84201D0B04265
:103BA00008D1076A27F48067076223F40063CF68AF
:103BB00043EA0723A8420AD0B04208D00F4DA842DA
:103BC00005D00F4DA84202D00E4DA84209D122F4D3
:103BD000805222F400524D6942EA05128D6942EA90
:103BE00005124260C4614968C1630362F0BD000010
:103BF0008FFFFEFF002C01400034014000400140D7
:103C00000044014000480140F0B5046A026A22F411
:103C1000805202624268C3691B4D2B4023F44073FB
:103C20000D6843EA052524F400538C6843EA043305
:103C3000164C174EA04201D0B04208D1076A27F4B3
:103C40008047076223F40043CF6843EA0733A0426A
:103C50000AD0B04208D00F4CA04205D00E4CA04272
:103C600002D00E4CA04209D122F4804222F400423C
:103C70004C6942EA84128C6942EA84124260C5614E
:103C8000496801640362F0BDFF8FFFFE002C014014
:103C90000034014000400140004401400048014020
:103CA00030B5056A026A22F4803202624268036D0E
:103CB000114C23400C681C4325F400330D8943EA62
:103CC00005430E4DA8420BD00D4DA84208D00D4D16
:103CD000A84205D00C4DA84202D00C4DA84204D1F8
:103CE00022F480324D6942EA052242600465496847
:103CF0008164036230BD00008FFFFEFF002C014095
:103D000000340140004001400044014000480140AF
:103D100030B5056A026A22F4801202624268036DBD
:103D2000114C23400C6843EA042425F400130D8948
:103D300043EA05530D4DA8420BD00D4DA84208D0C3
:103D40000C4DA84205D00C4DA84202D00B4DA84204
:103D500004D122F480224D6942EA85224260046542
:103D60004968C164036230BDFF8FFFFE002C014033
:103D7000003401400040014000440140004801403F
:103D800010B5046A036A23F0010303620E4B9842E4
:103D90000BD00E4B984208D00D4B984205D00D4BDE
:103DA000984202D00C4B984203D1036A23F00403DB
:103DB0000362836923F0F00343EA021324F00A024A
:103DC0000A438361026210BD002C014000340140AF
:103DD00000400140004401400048014010B5036A22
:103DE000046A24F0100404620A4CA04202D00A4C77
:103DF000A04203D1046A24F040040462846924F4DC
:103E0000704444EA023223F0A00343EA01118261C4
:103E1000016210BD002C01400034014030B5416EFC
:103E2000002917D002689168C1F342619268520F6D
:103E30000B4B9C5CE50003F10804A25CB5FBF2F2BD
:103E4000A0F86A205A5C615CD200B2FBF1F1A0F8E4
:103E5000681030BD012168304180018030BD000014
:103E6000AE48000890F82810090706D501684A688E
:103E7000836B22F400421A434A6090F82810C90765
:103E800006D001684A68C36A22F400321A434A60C5
:103E900090F82810890706D501684A68036B22F458
:103EA00080321A434A6090F82810490706D5016805
:103EB0004A68436B22F480221A434A6090F8281023
:103EC000C90606D501688A68C36B22F480521A437A
:103ED0008A6090F82810890606D501688A68036C04
:103EE00022F400521A438A6090F82810490611D52E
:103EF00001684A68436C22F480121A434A60416C9C
:103F0000B1F5801F06D101684A68836C22F4C002B3
:103F10001A434A6090F82810090606D501684A68D5
:103F2000C06C22F4002202434A6070472DE9F84336
:103F300004460025C4F89050FCF7AAFF804620688C
:103F400000684FF0200600076FF07E4716D5434605
:103F5000002231042046009700F0D2F970B12068A9
:103F600050E8001F21F0800140E80012002AF6D13D
:103F70008434666025700320BDE8F88320680068FB
:103F8000400720D5434600224FF480012046009789
:103F900000F0B6F9B8B1206850E8001F21F4907124
:103FA00040E80012002AF6D12068083050E8001FCF
:103FB00021F0010140E80012002AF5D18434A66006
:103FC00025700320D8E76C34E661266225606560C1
:103FD00025760020D0E7000010B5016851E8002FD9
:103FE00022F4907241E80023002BF6D10E4B0168B9
:103FF000083151E8002F1A4041E80024002CF6D186
:10400000C16E012908D1016851E8002F22F0100289
:1040100041E80023002BF6D12021C0F88C100021AC
:10402000C166416710BD0000FEFFFFEF2DE9F041C2
:1040300004460025A74B20682269A168E669114360
:104040006269324311430268A34E32400A43026060
:1040500020684168E26821F4405111434160A06941
:104060002168994201D0226A10438A689B4E3240EF
:1040700002438A602068C16A626A21F00F0111431D
:10408000C1629749226897488A4214D1D0F88800C3
:1040900010F0030007D0012809D0022805D003281A
:1040A00007D010216AE0012168E0022166E00421C6
:1040B00064E0082162E08C498A4214D1D0F888007B
:1040C00010F00C0007D0042809D0082805D00C28CF
:1040D00007D0102152E0002150E002214EE00421DF
:1040E0004CE008214AE081498A4214D1D0F8880086
:1040F00010F0300007D0102809D0202805D0302833
:1041000007D010213AE0002138E0022136E00421F6
:1041100034E0082132E076498A4214D1D0F8880090
:1041200010F0C00007D0402809D0802805D0C02852
:1041300007D0102122E0002120E002211EE004210E
:104140001CE008211AE09A4217D1D0F8880010F438
:1041500040600AD0B0F5806F0BD0B0F5006F06D08C
:10416000B0F5406F07D0102108E0002106E00221E1
:1041700004E0042102E0082100E010215D485E4EC9
:1041800000274FF4004C9A4239D1B9B1022905D029
:10419000042916D0082917D00020012560B3616AD0
:1041A00036F81120B0FBF2F1666806EB46038B424D
:1041B00002D8B1EB063F09D9012582E0FDF74EFD9B
:1041C000ECE7FDF76FFDE9E76046E7E700231946F6
:1041D000FCF777F8090241EA106102027008101832
:1041E000794132460023FCF76CF8444AA0F540714F
:1041F000914202D82168C86063E0012561E0E2696C
:104200004FF6EF78624530D1092911D2DFE801F08D
:10421000050812100B1010100E00FDF71FFD09E02D
:10422000FDF72EFD06E0FDF73DFD03E0604601E0F1
:1042300000200125F0B3616A36F81110B0FBF1F0EF
:104240004100606801EB5001B1FBF0F0A0F11001FA
:10425000414508D84FF6F0710140C0F342000143D8
:104260002068C1602DE001252BE0092911D2DFE88B
:1042700001F0050812100B1010100E00FDF7EEFCF7
:1042800009E0FDF7FDFC06E0FDF70CFD03E06046EC
:1042900001E00020012568B1616A36F81110B0FB19
:1042A000F1F1606801EB5001B1FBF0F0A0F11001F9
:1042B000414500E005E003D8216880B2C86000E015
:1042C00001250120683460802080E760276128464E
:1042D000BDE8F08100800040F369FFCFFFF4FF11DB
:1042E00000380140001002400044004000480040F7
:1042F000004C00400024F40096480008FFFC0F002A
:104300002DE9F0470446089E0D46174698464FF0A3
:10431000000935E0701C33D0FCF7BAFDA0EB0800B3
:10432000B04219D8C6B120680168490728D5802D48
:1043300026D0402D24D0C169C94309070ED4206876
:10434000082505622046FFF747FEC4F8905084F820
:1043500084900120BDE8F0870320FBE7C069C043DB
:1043600000050DD421684FF4006008622046FFF775
:1043700033FE2020C4F8900084F884900320E9E7FD
:104380002068C06935EA000004D00020B842C1D0DE
:104390000020DFE70120F9E7012120F8401F00217C
:1043A000018081800182002070474BF6807230F8D6
:1043B000401F91430180002070472DE9F0470646D9
:1043C0000C4600276078217B48F68F7248F28013F4
:1043D00048F68F6C48F28008012809D0002977D070
:1043E000E078022875D0012874D00120BDE8F0875C
:1043F000A5692069854200D90546C1B1E178022945
:1044000024D0206A401B2062207836F8201049060C
:1044100078D5B6F85010314401EBC000A0F806542E
:104420006289ABB23046616900F0CFF951E1ABB2BD
:10443000E2883046616900F0C8F9B6F850003044AF
:10444000217800EBC100A0F8025442E1216A8142C8
:1044500079D9207836F820101140194326F8201019
:10446000206A401B2062207836F820104FF6FF7932
:1044700049064FF4004A67D5617811B101292AD065
:1044800030E0B6F85010314401EBC00000F20640B5
:104490000188C1F3090101805DB13E2D0ED8690884
:1044A000EA0700D0491C028809EA81210A430280F8
:1044B00018E0018841F40041018013E06909EA062F
:1044C00000D1491E02884AEA81210A43028009E09C
:1044D0000EE12BE142E1B6F85020911901EBC0004A
:1044E000A0F806546289ABB23046616900F06DF9FC
:1044F0006069284460612169206A884203D9401BB1
:10450000206202E0D8E005462762607810B10128F9
:104510002AD031E0B6F850003044217800EBC100D9
:1045200000F202400188C1F3090101806DB13E2D06
:1045300010D86908EA0700D0491C028809EA8121DD
:104540000A43028018E09FE01DE0018841F4004129
:10455000018011E06909EA0600D1491E02884AEA91
:1045600081210A43028007E0B6F8500030442178E8
:1045700000EBC100A0F802542289ABB23046616959
:1045800000F023F9A5E0617811B1012927D02DE0D1
:10459000B6F85010314401EBC00000F2024001882F
:1045A000C1F3090101805DB13E2D0ED86908EA070B
:1045B00000D0491C028809EA81210A43028015E0E3
:1045C000018841F40041018010E06909EA0600D148
:1045D000491E02884AEA81210A43028006E0B6F8B1
:1045E0005010314401EBC000A0F802542289ABB254
:1045F0003046616900F0E9F860692844606121692A
:10460000206A884202D9401B206201E005462762E9
:10461000607810B1012828D02FE0B6F8500030445F
:10462000217800EBC10000F206400188C1F30901C6
:1046300001805DB13E2D0ED86908EA0700D0491C03
:10464000028809EA81210A43028016E0018841F4C8
:104650000041018011E06909EA0600D1491E028883
:104660004AEA81210A43028007E0B6F8501088190F
:10467000217800EBC100A0F806546289ABB2304645
:10468000616900F0A2F824E0207836F8202002EAE0
:104690000C0242EA080226F82020B6F85000304406
:1046A000227800EBC2008BB2A0F802342289304697
:1046B000616900F08AF80CE0B6F85010314401EB63
:1046C000C000A0F802542289ABB23046616900F004
:1046D0007CF8207836F8201048F6BF72114081F03F
:1046E000100181F0200141EA080126F8201044E081
:1046F000A06908B9E07878B1207836F8201001EA8E
:104700000C0141EA080126F820102169A0698842BD
:104710000AD9401AA06122E0207836F82010114012
:10472000194326F82010F0E7A76118E0E069B0B15E
:10473000217836F82100430401D5430605D400F45E
:10474000804300F04000034309D136F821001040B7
:1047500048F2C002104326F8210000E0A76120784B
:1047600036F820104BF68F72114081F4805181F49D
:10477000005141EA080126F82010002036E600002A
:104780000148FCF78DBE000054020020B0F8440040
:10479000704710B55C08104400F58060002C08D00C
:1047A00030F8022B0A70120A4A70891C641E002C11
:1047B000F6D1DA0701D00088087010BD002902D1B7
:1047C0008021A0F84C100020704710B55B1C5B08DE
:1047D000104400F58060002B09D00A784C7842EA3A
:1047E000042220F8022B891C5B1E002BF5D110BD82
:1047F000FEE74FF0553202EA5002801A4FF0333193
:1048000000F0333201EA9000104400EB101000F089
:104810000F3000EB102000EB104000F03F0070471D
:104820000907090E002804DB00F1E02080F80014DD
:10483000704700F00F0000F1E02080F8141D704771
:104840007047000004490A685206FCD5024AC1B20A
:104850000C321160704700001C380140FCF726FB49
:10486000FFF718F8FEF7AEFCFEF72CFDFEF7A8FDEB
:10487000FEF7DAFDFEF7FEFCFEF796FCFCF728F8E3
:10488000FBF7D2FF0120FCF70FFAF9E74FF0407079
:10489000E1EE100A70470100020004000600080063
:1048A0000A000C00100020004000800000010101FF
:1048B00001030701000008040204080101010000CF
:1048C00000000000000001020304060708090000C0
:1048D00000000102030400000000003F000000008F
:1048E00000000000920E493CB10AC93C2BC3163DA2
:1048F0002EFB483D752B7B3D04A9963D80B6AF3D10
:1049000036BDC83D2FBCE13D73B2FA3D87CF093EAD
:104910008340163EB5AB223EA2102F3ECF6E3B3EEB
:10492000C2C5473E0115543E135C603E7F9A6C3E03
:10493000CCCF783EC07D823E938E883E229A8E3EBA
:1049400032A0943E86A09A3EE59AA03E128FA63EE3
:10495000D47CAC3EEF63B23E2A44B83E491DBE3E15
:1049600015EFC33E53B9C93ECA7BCF3E4136D53E53
:1049700080E8DA3E4F92E03E7533E63EBBCBEB3E3D
:10498000EA5AF13ECBE0F63E275DFC3EE4E7003F0D
:104990003D9C033F824B063F9BF5083F6B9A0B3FC4
:1049A000DA390E3FCDD3103F2A68133FD9F6153FB1
:1049B000C07F183FC6021B3FD17F1D3FCBF61F3F74
:1049C0009967223F25D2243F5636273F1594293F29
:1049D0004AEB2B3FDE3B2E3FBB85303FC9C8323F01
:1049E000F304353F233A373F4268393F3B8F3B3F23
:1049F000F9AE3D3F67C73F3F70D8413F01E2433FBB
:104A000003E4453F65DE473F12D1493FF8BB4B3FCA
:104A1000029F4D3F207A4F3F3D4D513F4918533F34
:104A200031DB543FE595563F5348583F6AF2593FB2
:104A30001A945B3F532D5D3F05BE5E3F2146603FAC
:104A400097C5613F5A3C633F59AA643F880F663F50
:104A5000D86B673F3CBF683FA7096A3F0C4B6B3F71
:104A60005E836C3F93B26D3F9ED86E3F73F56F3F90
:104A70000809713F5213723F4714733FDD0B743FB7
:104A80000BFA743FC6DE753F07BA763FC58B773F9A
:104A9000F853783F9812793F9DC7793F02737A3F68
:104AA000BE147B3FCDAC7B3F283B7C3FC9BF7C3FE6
:104AB000AC3A7D3FCCAB7D3F23137E3FB0707E3F51
:104AC0006DC47E3F580E7F3F6D4E7F3FAB847F3F6E
:104AD0000FB17F3F97D37F3F43EC7F3F11FB7F3F79
:104AE0000000803F11FB7F3F43EC7F3F97D37F3F28
:104AF0000FB17F3FAB847F3F6D4E7F3F580E7F3FAE
:104B00006DC47E3FB0707E3F23137E3FCCAB7D3FB4
:104B1000AC3A7D3FC9BF7C3F283B7C3FCDAC7B3F5F
:104B2000BE147B3F02737A3F9DC7793F9812793F4D
:104B3000F853783FC58B773F07BA763FC6DE753F9F
:104B40000BFA743FDD0B743F4714733F5213723FEF
:104B50000809713F73F56F3F9ED86E3F93B26D3F6A
:104B60005E836C3F0C4B6B3FA7096A3F3CBF683FBD
:104B7000D86B673F880F663F59AA643F5A3C633F32
:104B800097C5613F2146603F05BE5E3F532D5D3FA7
:104B90001A945B3F6AF2593F5348583FE595563F98
:104BA00031DB543F4918533F3D4D513F207A4F3F31
:104BB000029F4D3FF8BB4B3F12D1493F65DE473F57
:104BC00003E4453F01E2433F70D8413F67C73F3FA1
:104BD000F9AE3D3F3B8F3B3F4268393F233A373F79
:104BE000F304353FC9C8323FBB85303FDE3B2E3F23
:104BF0004AEB2B3F1594293F5636273F25D2243FB9
:104C00009967223FCBF61F3FD17F1D3FC6021B3F56
:104C1000C07F183FD9F6153F2A68133FCDD3103F08
:104C2000DA390E3F6B9A0B3F9BF5083F824B063FEC
:104C30003D9C033FE4E7003F275DFC3ECBE0F63EB2
:104C4000EA5AF13EBBCBEB3E7533E63E4F92E03E77
:104C500080E8DA3E4136D53ECA7BCF3E53B9C93EE5
:104C600015EFC33E491DBE3E2A44B83EEF63B23E37
:104C7000D47CAC3E128FA63EE59AA03E86A09A3E1A
:104C800032A0943E229A8E3E938E883EC07D823E14
:104C9000CCCF783E7F9A6C3E135C603E0115543E4B
:104CA000C2C5473ECF6E3B3EA2102F3EB5AB223E63
:104CB0008340163E87CF093E73B2FA3D2FBCE13DDB
:104CC00036BDC83D80B6AF3D04A9963D752B7B3DF2
:104CD0002EFB483D2BC3163DB10AC93C920E493C00
:104CE00000000000920E49BCB10AC9BC2BC316BD1E
:104CF0002EFB48BD752B7BBD04A996BD80B6AFBD0C
:104D000036BDC8BD2FBCE1BD73B2FABD87CF09BEA9
:104D1000834016BEB5AB22BEA2102FBECF6E3BBEE7
:104D2000C2C547BE011554BE135C60BE7F9A6CBEFF
:104D3000CCCF78BEC07D82BE938E88BE229A8EBEB6
:104D400032A094BE86A09ABEE59AA0BE128FA6BEDF
:104D5000D47CACBEEF63B2BE2A44B8BE491DBEBE11
:104D600015EFC3BE53B9C9BECA7BCFBE4136D5BE4F
:104D700080E8DABE4F92E0BE7533E6BEBBCBEBBE39
:104D8000EA5AF1BECBE0F6BE275DFCBEE4E700BF09
:104D90003D9C03BF824B06BF9BF508BF6B9A0BBFC0
:104DA000DA390EBFCDD310BF2A6813BFD9F615BFAD
:104DB000C07F18BFC6021BBFD17F1DBFCBF61FBF70
:104DC000996722BF25D224BF563627BF159429BF25
:104DD0004AEB2BBFDE3B2EBFBB8530BFC9C832BFFD
:104DE000F30435BF233A37BF426839BF3B8F3BBF1F
:104DF000F9AE3DBF67C73FBF70D841BF01E243BFB7
:104E000003E445BF65DE47BF12D149BFF8BB4BBFC6
:104E1000029F4DBF207A4FBF3D4D51BF491853BF30
:104E200031DB54BFE59556BF534858BF6AF259BFAE
:104E30001A945BBF532D5DBF05BE5EBF214660BFA8
:104E400097C561BF5A3C63BF59AA64BF880F66BF4C
:104E5000D86B67BF3CBF68BFA7096ABF0C4B6BBF6D
:104E60005E836CBF93B26DBF9ED86EBF73F56FBF8C
:104E7000080971BF521372BF471473BFDD0B74BFB3
:104E80000BFA74BFC6DE75BF07BA76BFC58B77BF96
:104E9000F85378BF981279BF9DC779BF02737ABF64
:104EA000BE147BBFCDAC7BBF283B7CBFC9BF7CBFE2
:104EB000AC3A7DBFCCAB7DBF23137EBFB0707EBF4D
:104EC0006DC47EBF580E7FBF6D4E7FBFAB847FBF6A
:104ED0000FB17FBF97D37FBF43EC7FBF11FB7FBF75
:104EE000000080BF11FB7FBF43EC7FBF97D37FBF24
:104EF0000FB17FBFAB847FBF6D4E7FBF580E7FBFAA
:104F00006DC47EBFB0707EBF23137EBFCCAB7DBFB0
:104F1000AC3A7DBFC9BF7CBF283B7CBFCDAC7BBF5B
:104F2000BE147BBF02737ABF9DC779BF981279BF49
:104F3000F85378BFC58B77BF07BA76BFC6DE75BF9B
:104F40000BFA74BFDD0B74BF471473BF521372BFEB
:104F5000080971BF73F56FBF9ED86EBF93B26DBF66
:104F60005E836CBF0C4B6BBFA7096ABF3CBF68BFB9
:104F7000D86B67BF880F66BF59AA64BF5A3C63BF2E
:104F800097C561BF214660BF05BE5EBF532D5DBFA3
:104F90001A945BBF6AF259BF534858BFE59556BF94
:104FA00031DB54BF491853BF3D4D51BF207A4FBF2D
:104FB000029F4DBFF8BB4BBF12D149BF65DE47BF53
:104FC00003E445BF01E243BF70D841BF67C73FBF9D
:104FD000F9AE3DBF3B8F3BBF426839BF233A37BF75
:104FE000F30435BFC9C832BFBB8530BFDE3B2EBF1F
:104FF0004AEB2BBF159429BF563627BF25D224BFB5
:10500000996722BFCBF61FBFD17F1DBFC6021BBF52
:10501000C07F18BFD9F615BF2A6813BFCDD310BF04
:10502000DA390EBF6B9A0BBF9BF508BF824B06BFE8
:105030003D9C03BFE4E700BF275DFCBECBE0F6BEAE
:10504000EA5AF1BEBBCBEBBE7533E6BE4F92E0BE73
:1050500080E8DABE4136D5BECA7BCFBE53B9C9BEE1
:1050600015EFC3BE491DBEBE2A44B8BEEF63B2BE33
:10507000D47CACBE128FA6BEE59AA0BE86A09ABE16
:1050800032A094BE229A8EBE938E88BEC07D82BE10
:10509000CCCF78BE7F9A6CBE135C60BE011554BE47
:1050A000C2C547BECF6E3BBEA2102FBEB5AB22BE5F
:1050B000834016BE87CF09BE73B2FABD2FBCE1BDD7
:1050C00036BDC8BD80B6AFBD04A996BD752B7BBDEE
:1050D0002EFB48BD2BC316BDB10AC9BC920E49BCFC
:1050E00000000080045100080000002010010000B2
:1050F000140200081452000810010020800A000069
:105100003002000810000000010000000000000054
:105110000024F40000000000070000000000C0416F
:10512000000000000000000000000000000000007F
:10513000000000000000000000000000000000006F
:10514000000000000000000000000000000000005F
:10515000000000000000000000000000000000004F
:10516000000000000000000000000000000000003F
:10517000000000000000000000000000000000002F
:105180000000003F00000000276B543C00000000BE
:10519000000000000000000000000000000000000F
:1051A00000000000000000000000000000000000FF
:1051B00000000000000000000000000000000000EF
:1051C00000000000000000000000000000000000DF
:1051D00000000000000000000000000000000000CF
:1051E00000000000000000000000000000000000BF
:1051F00000000000000000000000000000000000AF
:10520000000000000000807F00000000000000009F
:04521000000000009A
:04000005080001D915
:00000001FF
